:020000040800F2
:10000000008001203D1F0008151D00081D1D00086F
:10001000251D00082D1D0008351D000800000000EA
:100020000000000000000000000000003D1D00086E
:100030004B1D000800000000591D0008671D000846
:100040008D1F00088D1F00088D1F00088D1F0008E0
:100050008D1F00088D1F00088D1F00088D1F0008D0
:100060008D1F00088D1F00088D1F00088D1F0008C0
:100070008D1F00088D1F00088D1F00088D1F0008B0
:100080008D1F00088D1F00088D1F00080000000054
:100090000000000000000000000000008D1F0008AC
:1000A0008D1F00088D1F00088D1F00088D1F000880
:1000B0008D1F00088D1F00088D1F00088D1F000870
:1000C0008D1F00088D1F00088D1F00088D1F000860
:1000D0008D1F00088D1F00088D1F00080000000004
:1000E000731D00088D1F00088D1F00080000000010
:1000F0000000000000000000000000008D1F00084C
:10010000000000008D1F00088D1F00088D1F0008D3
:1001100000000000000000000000000000000000DF
:100120008D1F00088D1F00088D1F00088D1F0008FF
:100130008D1F00080000000000000000000000000B
:100140000000000000000000000000008D1F0008FB
:100150008D1F00088D1F00088D1F00088D1F0008CF
:100160008D1F00088D1F0008000000000000000027
:10017000000000000000000000000000000000007F
:10018000000000008D1F00080000000000000000BB
:040190008D1F0008B7
:1001A00010B5054C237833B9044B13B10448AFF3B1
:1001B00000800123237010BD7C000020000000009F
:1001C000D864000808B5034B1BB103490348AFF3DB
:1001D000008008BD0000000080000020D8640008F6
:1001E00001F0FF01102A2BDB10F0070F08D010F8E8
:1001F000013B013A8B422DD010F0070F42B3F6D1EC
:10020000F0B441EA012141EA014122F007047FF004
:1002100000070023F0E80256083C85EA010586EA5B
:10022000010685FA47F5A3FA87F586FA47F6A5FA97
:1002300087F68EB9EED1F0BC01F0FF0102F00702A3
:1002400032B110F8013B013A83EA010313B1F8D14E
:100250000020704701387047002D06BF354603382F
:10026000073815F0010F07D1013015F4807F02BF68
:10027000013015F4C03F0130F0BC0138704700BFB9
:1002800081F0004102E000BF83F0004330B54FEA47
:1002900041044FEA430594EA050F08BF90EA020FB4
:1002A0001FBF54EA000C55EA020C7FEA645C7FEA47
:1002B000655C00F0E2804FEA5454D4EB5555B8BF6A
:1002C0006D420CDD2C4480EA020281EA030382EADB
:1002D000000083EA010180EA020281EA0303362D6D
:1002E00088BF30BD11F0004F4FEA01314FF4801C40
:1002F0004CEA113102D0404261EB410113F0004F52
:100300004FEA03334CEA133302D0524263EB430308
:1003100094EA050F00F0A780A4F10104D5F1200EA6
:100320000DDB02FA0EFC22FA05F2801841F1000101
:1003300003FA0EF2801843FA05F359410EE0A5F1D5
:1003400020050EF1200E012A03FA0EFC28BF4CF006
:10035000020C43FA05F3C01851EBE37101F00045BC
:1003600007D54FF0000EDCF1000C7EEB00006EEBC9
:100370000101B1F5801F1BD3B1F5001F0CD3490853
:100380005FEA30004FEA3C0C04F101044FEA4452AA
:1003900012F5800F80F09A80BCF1004F08BF5FEA31
:1003A000500C50F1000041EB045141EA050130BD11
:1003B0005FEA4C0C404141EB0101013C28BFB1F523
:1003C000801FE9D291F0000F04BF01460020B1FA6E
:1003D00081F308BF2033A3F10B03B3F120020CDA41
:1003E0000C3208DD02F1140CC2F10C0201FA0CF01F
:1003F00021FA02F10CE002F11402D8BFC2F1200C84
:1004000001FA02F120FA0CFCDCBF41EA0C01904039
:10041000E41AA2BF01EB0451294330BD6FEA040482
:100420001F3C1CDA0C340EDC04F11404C4F120026D
:1004300020FA04F001FA02F340EA030021FA04F37F
:1004400045EA030130BDC4F10C04C4F1200220FAD6
:1004500002F001FA04F340EA0300294630BD21FA14
:1004600004F0294630BD94F0000F83F4801306BFDA
:1004700081F480110134013D4EE77FEA645C18BFCE
:100480007FEA655C29D094EA050F08BF90EA020F65
:1004900005D054EA000C04BF1946104630BD91EA5D
:1004A000030F1EBF0021002030BD5FEA545C05D160
:1004B0004000494128BF41F0004130BD14F580049F
:1004C0003CBF01F5801130BD01F0004545F0FE4113
:1004D00041F470014FF0000030BD7FEA645C1ABF48
:1004E000194610467FEA655C1CBF0B46024650EA7F
:1004F000013406BF52EA033591EA030F41F40021AB
:1005000030BD00BF90F0000F04BF0021704730B530
:100510004FF4806404F132044FF000054FF0000105
:1005200050E700BF90F0000F04BF0021704730B5C6
:100530004FF4806404F1320410F0004548BF40429B
:100540004FF000013EE700BF42004FEAE2014FEAF0
:1005500031014FEA02701FBF12F07F4393F07F4FCB
:1005600081F06051704732F07F4208BF704793F0CE
:100570007F4F04BF41F40021704730B54FF46074E1
:1005800001F0004521F000411CE700BF50EA0102E4
:1005900008BF704730B54FF000050AE050EA01028D
:1005A00008BF704730B511F0004502D5404261EBFD
:1005B00041014FF4806404F132045FEA915C3FF43E
:1005C000D8AE4FF003025FEADC0C18BF03325FEADB
:1005D000DC0C18BF033202EBDC02C2F1200300FA8C
:1005E00003FC20FA02F001FA03FE40EA0E0021FAB1
:1005F00002F11444BDE600BF70B54FF0FF0C4CF49F
:10060000E06C1CEA11541DBF1CEA135594EA0C0F50
:1006100095EA0C0F00F0DEF82C4481EA030621EA8B
:100620004C5123EA4C5350EA013518BF52EA0335C6
:1006300041F4801143F4801338D0A0FB02CE4FF078
:100640000005E1FB02E506F00042E0FB03E54FF0A8
:100650000006E1FB03569CF0000F18BF4EF0010EA0
:10066000A4F1FF04B6F5007F64F5407404D25FEA9C
:100670004E0E6D4146EB060642EAC62141EA55514F
:100680004FEAC52040EA5E504FEACE2EB4F1FD0C91
:1006900088BFBCF5E06F1ED8BEF1004F08BF5FEA0F
:1006A000500E50F1000041EB045170BD06F00046C1
:1006B00046EA010140EA020081EA0301B4EB5C046E
:1006C000C2BFD4EB0C0541EA045170BD41F4801166
:1006D0004FF0000E013C00F3AB8014F1360FDEBF8B
:1006E000002001F0004170BDC4F10004203C35DA67
:1006F0000C341BDC04F11404C4F1200500FA05F3EA
:1007000020FA04F001FA05F240EA020001F000428A
:1007100021F0004110EBD37021FA04F642EB060100
:100720005EEA430E08BF20EAD37070BDC4F10C042A
:10073000C4F1200500FA04F320FA05F001FA04F2EE
:1007400040EA020001F0004110EBD37041F10001DA
:100750005EEA430E08BF20EAD37070BDC4F12005E5
:1007600000FA05F24EEA020E20FA04F301FA05F24D
:1007700043EA020321FA04F001F0004121FA04F2F5
:1007800020EA020000EBD3705EEA430E08BF20EAC5
:10079000D37070BD94F0000F0FD101F000464000FF
:1007A00041EB010111F4801F08BF013CF7D041EA81
:1007B000060195F0000F18BF704703F00046520085
:1007C00043EB030313F4801F08BF013DF7D043EA56
:1007D0000603704794EA0C0F0CEA135518BF95EA0C
:1007E0000C0F0CD050EA410618BF52EA4306D1D193
:1007F00081EA030101F000414FF0000070BD50EAB2
:10080000410606BF1046194652EA430619D094EA3B
:100810000C0F02D150EA013613D195EA0C0F05D125
:1008200052EA03361CBF104619460AD181EA030179
:1008300001F0004141F0FE4141F470014FF0000031
:1008400070BD41F0FE4141F4780170BD70B54FF0CC
:10085000FF0C4CF4E06C1CEA11541DBF1CEA13554C
:1008600094EA0C0F95EA0C0F00F0A7F8A4EB05042E
:1008700081EA030E52EA03354FEA013100F0888025
:100880004FEA03334FF0805545EA131343EA1263EE
:100890004FEA022245EA111545EA10654FEA0026A3
:1008A0000EF000419D4208BF964244F1FD0404F55C
:1008B000407402D25B084FEA3202B61A65EB0305B8
:1008C0005B084FEA32024FF480104FF4002CB6EB75
:1008D000020E75EB030E22BFB61A754640EA0C00F5
:1008E0005B084FEA3202B6EB020E75EB030E22BF35
:1008F000B61A754640EA5C005B084FEA3202B6EB76
:10090000020E75EB030E22BFB61A754640EA9C0034
:100910005B084FEA3202B6EB020E75EB030E22BF04
:10092000B61A754640EADC0055EA060E18D04FEAC2
:10093000051545EA16754FEA06164FEAC30343EA62
:1009400052734FEAC2025FEA1C1CC0D111F4801F2F
:100950000BD141EA00014FF000004FF0004CB6E728
:1009600011F4801F04BF01430020B4F1FD0C88BFC7
:10097000BCF5E06F3FF6AFAEB5EB030C04BFB6EBD2
:10098000020C5FEA500C50F1000041EB045170BDC5
:100990000EF0004E4EEA113114EB5C04C2BFD4EBF2
:1009A0000C0541EA045170BD41F480114FF0000E76
:1009B000013C90E645EA060E8DE60CEA135594EAF2
:1009C0000C0F08BF95EA0C0F3FF43BAF94EA0C0FF5
:1009D0000AD150EA01347FF434AF95EA0C0F7FF46A
:1009E00025AF104619462CE795EA0C0F06D152EABE
:1009F00003353FF4FDAE1046194622E750EA4106A2
:100A000018BF52EA43067FF4C5AE50EA41047FF4B2
:100A10000DAF52EA43057FF4EBAE12E74FF0FF3C17
:100A200006E000BF4FF0010C02E000BF4FF0010CE8
:100A30004DF804CD4FEA410C7FEA6C5C4FEA430C61
:100A400018BF7FEA6C5C1BD001B050EA410C0CBFB0
:100A500052EA430C91EA030F02BF90EA020F002012
:100A6000704710F1000F91EA030F58BF994208BF79
:100A700090422CBFD8176FEAE37040F00100704736
:100A80004FEA410C7FEA6C5C02D150EA013C07D18D
:100A90004FEA430C7FEA6C5CD6D152EA033CD3D0D8
:100AA0005DF8040B704700BF8446104662468C46D2
:100AB0001946634600E000BF01B5FFF7B7FF002805
:100AC00048BF10F1000F01BD4DF808EDFFF7F4FF2E
:100AD0000CBF012000205DF808FB00BF4DF808EDB9
:100AE000FFF7EAFF34BF012000205DF808FB00BFDC
:100AF0004DF808EDFFF7E0FF94BF012000205DF8FE
:100B000008FB00BF4DF808EDFFF7CEFF94BF0120B2
:100B100000205DF808FB00BF4DF808EDFFF7C4FFAB
:100B200034BF012000205DF808FB00BF4FEA4102FE
:100B300012F5001215D211D56FF47873B3EB62522F
:100B400012D94FEAC12343F0004343EA505311F056
:100B5000004F23FA02F018BF404270474FF00000E8
:100B6000704750EA013005D111F0004008BF6FF026
:100B7000004070474FF00000704700BF53B94AB9BA
:100B8000002908BF00281CBF4FF0FF314FF0FF3095
:100B900000F06AB9ADF1080C6DE904CE00F006F87A
:100BA000DDF804E0DDE9022304B070472DE9F047E9
:100BB000089D0C46002B4ED194468C458646B2FAD1
:100BC00082F262D94AB1C2F12003914020FA03F3C4
:100BD0000CFA02FC194300FA02FE4FEA1C471FFA06
:100BE0008CF6B1FBF7F44FEA1E4307FB141143EAFE
:100BF000014304FB06F199420AD91CEB030304F1FB
:100C0000FF3080F01281994240F20F81023C634430
:100C1000591A1FFA8EF3B1FBF7F007FB101143EAE4
:100C2000014300FB06F69E420AD91CEB030300F1C8
:100C3000FF3180F0FC809E4240F2F980634402382C
:100C40009B1B40EA044000211DB1D3400022C5E9AE
:100C50000032BDE8F0878B4205D90DB1C5E900012E
:100C600000210846F5E7B3FA83F1002946D1A342F3
:100C700002D39042C0F0F080861A64EB0303012097
:100C8000002DE6D0C5E90063E3E7002A40F090803C
:100C9000A1EB0C044FEA1C481FFA8CF70121B4FBAE
:100CA000F8F64FEA1E4308FB164443EA044307FBE9
:100CB00006F0984208D91CEB030306F1FF3402D278
:100CC000984200F2CD8026461C1A1FFA8EF3B4FB20
:100CD000F8F008FB104443EA044300FB07F79F4287
:100CE00008D91CEB030300F1FF3402D29F4200F24B
:100CF000B0802046DB1B40EA0640A5E7C1F1200694
:100D00008B4022FA06F71F4320FA06FC04FA01F38F
:100D100043EA0C03F44000FA01F8380C4FEA134997
:100D2000B4FBF0FE1FFA87FC00FB1E4449EA0444B2
:100D30000EFB0CF9A14502FA01F20AD93C190EF199
:100D4000FF3A80F08480A14540F28180AEF1020E2E
:100D50003C44A4EB09041FFA83F9B4FBF0F300FB55
:100D6000134449EA044403FB0CFCA44507D93C198D
:100D700003F1FF3067D2A44565D9023B3C4443EA06
:100D80000E40A0FB0293A4EB0C049C42CE469C4672
:100D900051D34ED055B1B8EB0E0364EB0C0404FAFA
:100DA00006F6CB401E43CC40C5E90064002150E765
:100DB000C2F1200320FA03F10CFA02FC24FA03F337
:100DC00094400C434FEA1C4800FA02FE1FFA8CF7CD
:100DD000B3FBF8F008FB1031230C43EA014300FB9E
:100DE00007F1994208D91CEB030300F1FF362CD21E
:100DF00099422AD9023863445B1AA4B2B3FBF8F1D2
:100E000008FB113344EA034401FB07F3A34208D96A
:100E10001CEB040401F1FF3613D2A34211D90239AD
:100E20006444E41A41EA004139E70446F0E6084622
:100E300006E7C845AED2B9EB020E63EB070C0138EA
:100E4000A8E73146EDE7034699E73046D4E7D646B2
:100E50007FE7634402384DE70646234608460FE71E
:100E6000023E634430E700BF704700BF80B400AF6C
:100E7000144BDB68134A23F08073D360114BDB689B
:100E8000104A43F08073D3600F4B1B680E4A23F067
:100E9000010313600C4B1B680B4A43F00103136002
:100EA000094B00225A6000BF00BF00BF064B5B68C1
:100EB000002B01D0002300E001231846BD465DF859
:100EC000047B7047F0ED00E0001000E080B584B0D6
:100ED00000AF78600D4B5B68FB6002F0EBFC0346F3
:100EE0000B4AA2FB03239B0C7A6802FB03F37B6093
:100EF00000BF064B5A68FB68D21A7B689A42F8D347
:100F000000BF00BF1037BD4680BD00BF001000E02D
:100F100083DE1B4380B588B000AF78600B467B80D2
:100F200007F10C0300221A605A609A60DA601A61B5
:100F30007B88FB6001233B610023BB6107F10C034D
:100F40001946786801F0CCF900BF2037BD4680BD56
:100F500080B588B000AF78600B467B8007F10C034A
:100F600000221A605A609A60DA601A617B88FB601E
:100F700000233B6100237B6107F10C03194678686D
:100F800001F0AEF900BF2037BD4680BD80B500AF8F
:100F9000FFF76CFF08210D48FFF7BCFF0022082176
:100FA0000A4801F039FB44F25060FFF78FFF01223D
:100FB0000821064801F030FB1E20FFF787FF0821BB
:100FC0000248FFF7C5FF00BF80BD00BF000402401C
:100FD00080B582B000AF0023FB713220FFF776FFAF
:100FE0000821114801F000FB0346002B0ED16420BC
:100FF000FFF76CFF08210C4801F0F6FA0346002BBE
:1010000002D00123FB7101E0FF23FB7100BF082127
:10101000054801F0E9FA0346002BF8D1FB791846A0
:101020000837BD4680BD00BF0004024080B582B0D5
:1010300000AF0023BB7137E000BF08211E4801F05C
:10104000D3FA0346002BF8D03220FFF73FFF0821E8
:10105000194801F0C9FA0346002B0ED1BB79C3F140
:101060000703012202FA03F35BB2DB435AB297F99A
:10107000073013405BB2FB710BE0BB79C3F1070390
:10108000012202FA03F35AB297F9073013435BB215
:10109000FB7100BF0821084801F0A6FA0346002BA7
:1010A000F8D1BB790133BB71BB79072BC4D9FB796C
:1010B00018460837BD4680BD0004024080B582B0A6
:1010C00000AF7860FFF762FFFFF782FF03461A4622
:1010D000234B1A70FFF7AAFF03461A46214B1A70DA
:1010E000FFF7A4FF03461A461F4B1A70FFF79EFF37
:1010F00003461A461D4B1A70FFF798FF03461A461F
:101100001B4B1A70FFF792FF03461A46194B1A80C1
:10111000184B1B881946134B1B781A46124B1B7829
:101120001344124A12781344114A12781344994214
:1011300011D10E4B1B7807EE903AF8EE677A7B6878
:10114000C3ED007A074B1B7807EE903AF8EE677A0A
:101150007B68C3ED017A00BF0837BD4680BD00BF84
:101160009E00002098000020990000209A00002096
:101170009B0000209C00002080B582B000AF034699
:10118000FB71384AFB791370374B08221A70374BC2
:1011900000221A70334B1B78012B07D9334B1B7875
:1011A00043F00803DAB2314B1A7006E02F4B1B787C
:1011B00043F00403DAB22D4B1A7000F085F93220A7
:1011C00000F058FF284B1B78184600F043F94FF405
:1011D0007A7000F04FFF302000F02BF941F29410AC
:1011E00000F09CF9302000F024F941F2941000F056
:1011F00095F9302000F01DF941F2941000F08EF9BD
:10120000202000F016F9642000F088F9174B1B78B5
:1012100043F02003DBB2184600F0CEF8144B042252
:101220001A7000F075F800F02BF8124B02221A70B9
:10123000104B1B7843F00403DBB2184600F0BCF8F7
:1012400041F2941000F06AF90B49002000F076F8A2
:101250000A49012000F072F800F01DF800BF0837BD
:10126000BD4680BDA2000020A30000209F000020FA
:10127000A0000020A10000200000002008000020A5
:1012800080B500AF012000F097F84FF4FA6000F04D
:1012900045F900BF80BD80B500AF022000F08CF89A
:1012A0004FF4FA6000F03AF900BF80BD90B587B006
:1012B00000AF03460A46FB711346BB71124B07F1A0
:1012C00008040FCB84E80F00104B1B78BA799A42C0
:1012D00003D30E4B1B78013BBB71BB799B001833CA
:1012E0003B4453F8103CDAB2FB791344DBB25BB2F7
:1012F00063F07F035BB2DBB2184600F05DF800BF1D
:101300001C37BD4690BD00BFF0640008A20000205D
:1013100080B500AF084B1B7843F00403DAB2064BEC
:101320001A70054B1B7843F00803DBB2184600F037
:1013300043F800BF80BD00BFA000002080B584B08E
:1013400000AF03463960FB71FB7903F00703FB71C3
:10135000FB79DB005BB243F040035BB2DBB21846C3
:1013600000F02AF80023FB6009E0FB683A681344A8
:101370001B78184600F02EF8FB680133FB60FB6811
:10138000072BF2DD00BF00BF1037BD4680BD80B522
:1013900082B000AF786006E07B685A1C7A601B78E8
:1013A000184600F017F87B681B78002BF4D100BFBB
:1013B00000BF0837BD4680BD80B582B000AF034690
:1013C000FB71FB790021184600F012F800BF0837C6
:1013D000BD4680BD80B582B000AF0346FB71FB798E
:1013E0000121184600F004F800BF0837BD4680BD53
:1013F00080B584B000AF03460A46FB711346BB714B
:10140000FB7923F00F03FB73FB791B01BB73FA7BA2
:10141000BB791343DBB2184600F00BF8BA7BBB79FB
:101420001343DBB2184600F004F800BF1037BD4686
:1014300080BD80B582B000AF0346FB71FB791846D2
:1014400000F008F8FB79184600F020F800BF0837D4
:10145000BD4680BD80B586B002AF0346FB71094B27
:101460001A78FB791343DBB2FB7307F10F020A23EF
:10147000009301234E21044801F05EFA00BF1037AB
:10148000BD4680BDA3000020A400002080B582B02E
:1014900000AF0346FB71FB7943F00403DBB218464F
:1014A000FFF7D8FF142000F039F8FB7923F004038C
:1014B000DBB21846FFF7CEFF142000F02FF800BF74
:1014C0000837BD4680BD000080B400AF114BDB681B
:1014D000104A23F08073D3600E4BDB680D4A43F053
:1014E0008073D3600C4B1B680B4A23F0010313601D
:1014F000094B1B68084A43F001031360064B0022A6
:101500005A6000BF00BF00BF00BFBD465DF8047B4E
:10151000704700BFF0ED00E0001000E080B487B03D
:1015200000AF78600E4B1B680E4AA2FB03239A0C97
:101530007B6802FB03F37B610B4B5B683B610A4BEF
:101540005A683B69D31AFB60FB687A699A42F6D8FD
:1015500000BF00BF1C37BD465DF8047B704700BF6D
:101560001400002083DE1B43001000E080B582B031
:1015700000AF0346FB8020211C4801F066F80022E2
:1015800080211A4801F048F80221194801F05DF85D
:101590000121164801F059F81021154801F055F8BD
:1015A000144B1B78002B03D1124B01221A7002E05E
:1015B000104B00221A70104B1B78002B03D10E4BDE
:1015C00001221A7002E00C4B00221A700B4B1B78A0
:1015D000002B03D1094B01221A7002E0074B0022B5
:1015E0001A7000BF0837BD4680BD00BF000402402E
:1015F000000002405C0100201000002011000020CB
:1016000080B500AF00F0C4FC00F036F900F0F8F946
:1016100000F0CCF900F09CF90220FFF7ADFDFFF7D8
:101620002FFE00210220FFF741FE3C48FFF7AFFEEE
:1016300001210120FFF73AFE3948FFF7A8FE00F02C
:101640007FF8384B1B78222B20D9374B1B78012B86
:101650001CD101220221354800F0DEFF01220121C8
:10166000334800F0D9FF01221021304800F0D4FFA8
:10167000012220212E4800F0CFFF002280212C489B
:1016800000F0CAFF2B4B01221A7023E0254B1B7878
:10169000222B1FD8284B1B78012B1BD100220221A3
:1016A000224800F0B9FF00220121214800F0B4FFD8
:1016B000002210211D4800F0AFFF002220211C480D
:1016C00000F0AAFF00228021194800F0A5FF194B65
:1016D00000221A70174B1B78012B09D1174B4F2290
:1016E0001A70164B4E225A70144B20229A700CE03E
:1016F000104B1B78002B08D1104B4F221A700F4B48
:1017000046225A700D4B46229A7000210D20FFF799
:10171000CDFD0A48FFF73BFE91E700BF00650008DA
:101720000C6500085B010020100000200000024052
:10173000000402405C01002011000020580100203C
:10174000B0B58AB000AF4248FFF7B8FC404B1B6809
:10175000404A13603E4B5B683F4A136000F07EFCDA
:1017600003461A463D4B1A603A4BD3ED007AFCEE25
:10177000E77AC7ED017A3B79DAB2394B1A70354B0B
:101780001B687B62344B1B683B6200F067FC0346BE
:10179000324A12689B1AB3F5966FF6D3314B1B6829
:1017A0000133304A1360FFF76BFD00210120FFF782
:1017B0007DFD2D48FFF7EBFD00210920FFF776FDA9
:1017C0002A48FFF7E4FD786AFEF7BEFE04460D46A0
:1017D00007F10C031946022045EC104B02F062FBA6
:1017E00001210020FFF762FD2148FFF7D0FD012114
:1017F0000520FFF75BFD07F10C031846FFF7C7FD57
:10180000386AFEF7A1FE04460D4607F10C0319469F
:10181000022045EC104B02F045FB01210920FFF7A7
:1018200045FD1448FFF7B3FD01210E20FFF73EFDF3
:1018300007F10C031846FFF7AAFD00F00FFC034662
:101840001A46064B1A6000BF00BF2837BD46B0BD20
:1018500040010020480100204C01002054010020DC
:101860005B010020500100201C6500082465000871
:101870002C6500083465000880B594B000AF07F10E
:10188000200330220021184602F03DFC07F10C0332
:1018900000221A605A609A60DA601A610023BB6005
:1018A000294B1B6C284A43F080531364264B1B6C56
:1018B00003F08053BB60BB6800237B60234B1B6835
:1018C00023F44043214A43F4004313601F4B1B6839
:1018D00003F440437B607B6802233B620123FB628D
:1018E00010233B630223BB630023FB6310233B6491
:1018F0004FF4A8737B640423BB640723FB6407F1E4
:101900002003184601F072FB0346002B01D000F0C3
:1019100043F90F23FB6002233B6100237B614FF4FB
:101920008053BB610023FB6107F10C0302211846C1
:1019300001F0D4FD0346002B01D000F02DF900BFCB
:101940005037BD4680BD00BF0038024000700040E7
:1019500080B500AF124B134A1A60114B124A5A60FD
:101960000F4B00229A600E4B0022DA600C4B4FF4B2
:1019700080421A610A4B00225A61094B00229A6187
:10198000074B0022DA61064B00221A62044800F07D
:101990008FFE0346002B01D000F0FEF800BF80BD93
:1019A000A400002000540040A086010080B500AFD4
:1019B000114B124A1A60104B4FF4E1325A600E4B31
:1019C00000229A600C4B0022DA600B4B00221A6155
:1019D000094B0C225A61084B00229A61064B0022E7
:1019E000DA61054801F09AFF0346002B01D000F0B0
:1019F000D3F800BF80BD00BFF800002000440040C5
:101A000080B58AB000AF07F1140300221A605A6053
:101A10009A60DA601A6100233B615B4B1B6B5A4A88
:101A200043F004031363584B1B6B03F004033B6147
:101A30003B690023FB60544B1B6B534A43F080030C
:101A40001363514B1B6B03F08003FB60FB680023A7
:101A5000BB604D4B1B6B4C4A43F0010313634A4B75
:101A60001B6B03F00103BB60BB6800237B60464B2C
:101A70001B6B454A43F002031363434B1B6B03F09C
:101A800002037B607B6800222021404800F0C4FDF7
:101A90004FF400537B614FF40413BB610023FB61DF
:101AA00007F1140319463A4800F01AFC20237B6121
:101AB0000123BB610023FB6100233B6207F1140398
:101AC0001946324800F00CFC4FF480637B614FF400
:101AD0000413BB610123FB6107F1140319462B4872
:101AE00000F0FEFB02237B610123BB610023FB614D
:101AF00001233B6207F114031946244800F0F0FB70
:101B000001237B610123BB610023FB6101233B6255
:101B100007F1140319461F4800F0E2FB10237B6114
:101B20000123BB610023FB6101233B6207F1140326
:101B30001946164800F0D4FB20237B610123BB61CA
:101B40000023FB6101233B6207F11403194611488E
:101B500000F0C6FB80237B610123BB610023FB6196
:101B600001233B6207F1140319460A4800F0B8FB51
:101B700000220021282000F07CFB282000F095FBAB
:101B800000BF2837BD4680BD00380240000002403B
:101B9000000802400004024080B400AF72B600BFEB
:101BA00000BFFDE780B582B000AF00237B60104B23
:101BB0005B6C0F4A43F4804353640D4B5B6C03F43E
:101BC00080437B607B6800233B60094B1B6C084AA9
:101BD00043F080531364064B1B6C03F080533B604F
:101BE0003B68072000F03AFB00BF0837BD4680BDC8
:101BF0000038024080B58AB000AF786007F1140366
:101C000000221A605A609A60DA601A617B681B6869
:101C1000194A93422CD100233B61184B1B6B174A86
:101C200043F002031363154B1B6B03F002033B618C
:101C30003B694FF440737B611223BB610023FB615E
:101C400003233B6204237B6207F1140319460C480B
:101C500000F046FB0023FB60084B1B6C074A43F473
:101C600000131364054B1B6C03F40013FB60FB684B
:101C700000BF2837BD4680BD0054004000380240F8
:101C80000004024080B58AB000AF786007F1140309
:101C900000221A605A609A60DA601A617B681B68D9
:101CA000194A93422BD100233B61184B1B6C174AF6
:101CB00043F400331364154B1B6C03F400333B6196
:101CC0003B690023FB60114B1B6B104A43F001037F
:101CD00013630E4B1B6B03F00103FB60FB680C23CB
:101CE0007B610223BB610023FB6100233B6207236E
:101CF0007B6207F114031946054800F0F1FA00BFB2
:101D00002837BD4680BD00BF004400400038024077
:101D10000000024080B400AF00BFFDE780B400AF18
:101D200000BFFDE780B400AF00BFFDE780B400AFA7
:101D300000BFFDE780B400AF00BFFDE780B400AF97
:101D400000BFBD465DF8047B704780B400AF00BFA4
:101D5000BD465DF8047B704780B400AF00BFBD4650
:101D60005DF8047B704780B500AF00F063F900BFF9
:101D700080BD80B500AF4FF4806000F081FC4FF46F
:101D8000005000F07DFC00BF80BD80B400AF012397
:101D90001846BD465DF8047B704780B582B000AF41
:101DA0007860396002F0FEF9034616221A604FF09F
:101DB000FF3318460837BD4680BD80B582B000AFFE
:101DC00078604FF0FF317868FFF7E7FF00BFFDE76D
:101DD00080B586B000AFF860B9607A6000237B619F
:101DE0000AE0AFF300800146BB685A1CBA60CAB271
:101DF0001A707B6901337B617A697B689A42F0DBF8
:101E00007B6818461837BD4680BD80B586B000AFE8
:101E1000F860B9607A6000237B6109E0BB685A1CF6
:101E2000BA601B781846AFF300807B6901337B6191
:101E30007A697B689A42F1DB7B6818461837BD46A1
:101E400080BD80B483B000AF78604FF0FF33184698
:101E50000C37BD465DF8047B704780B483B000AF9B
:101E6000786039603B684FF400525A60002318468E
:101E70000C37BD465DF8047B704780B483B000AF7B
:101E80007860012318460C37BD465DF8047B704727
:101E900080B485B000AFF860B9607A60002318465E
:101EA0001437BD465DF8047B7047000080B586B0EE
:101EB00000AF7860144A154BD31A7B617B693B6194
:101EC000134B1B68002B02D1114B124A1A60104BA6
:101ED0001A687B6813443A699A4207D202F062F9A1
:101EE00003460C221A604FF0FF3309E0084B1B68D1
:101EF000FB60074B1A687B681344054A1360FB6854
:101F000018461837BD4680BD00800120000400003F
:101F100060010020B802002080B400AF064BD3F867
:101F20008830054A43F47003C2F8883000BFBD46CC
:101F30005DF8047B704700BF00ED00E0DFF834D0AF
:101F4000FFF7EAFF0C480D490D4A002302E0D45880
:101F5000C4500433C4188C42F9D30A4A0A4C0023F3
:101F600001E013600432A242FBD302F021F9FFF733
:101F700047FB704700800120000000207C0000200B
:101F8000B86700087C000020B4020020FEE70000D3
:101F900080B500AF0E4B1B680D4A43F4007313600D
:101FA0000B4B1B680A4A43F480631360084B1B68A1
:101FB000074A43F480731360032000F04FF90020B8
:101FC00000F008F8FFF7EEFD0023184680BD00BFC3
:101FD000003C024080B582B000AF7860124B1A68B6
:101FE000124B1B7819464FF47A73B3FBF1F3B2FB33
:101FF000F3F3184600F067F90346002B01D00123E4
:102000000EE07B680F2B0AD8002279684FF0FF3072
:1020100000F02FF9064A7B681360002300E00123DB
:1020200018460837BD4680BD140000201C00002063
:102030001800002080B400AF064B1B781A46064BF0
:102040001B681344044A136000BFBD465DF8047B5F
:10205000704700BF1C0000206401002080B400AF66
:10206000034B1B681846BD465DF8047B704700BFF4
:102070006401002080B584B000AF7860FFF7EEFF08
:10208000B8607B68FB60FB68B3F1FF3F05D00A4B8B
:102090001B781A46FB681344FB6000BFFFF7DEFFA6
:1020A0000246BB68D31AFA689A42F7D800BF00BF4D
:1020B0001037BD4680BD00BF1C00002080B485B035
:1020C00000AF78607B6803F00703FB600C4BDB68B4
:1020D000BB60BA684FF6FF031340BB60FB681A028F
:1020E000BB68134343F0BF6343F40033BB60044A4F
:1020F000BB68D36000BF1437BD465DF8047B7047F2
:1021000000ED00E080B400AF044BDB681B0A03F075
:1021100007031846BD465DF8047B704700ED00E0FC
:1021200080B483B000AF0346FB7197F90730002BF2
:102130000BDBFB7903F01F02074997F907305B09B6
:10214000012000FA02F241F8232000BF0C37BD46FF
:102150005DF8047B704700BF00E100E080B483B00D
:1021600000AF03463960FB7197F90730002B0ADB9B
:102170003B68DAB20C4997F907301201D2B20B442E
:1021800083F800230AE03B68DAB20849FB7903F0E0
:102190000F03043B1201D2B20B441A7600BF0C3776
:1021A000BD465DF8047B704700E100E000ED00E013
:1021B00080B489B000AFF860B9607A60FB6803F062
:1021C0000703FB61FB69C3F10703042B28BF04234A
:1021D000BB61FB690433062B02D9FB69033B00E0BA
:1021E00000237B614FF0FF32BB6902FA03F3DA434D
:1021F000BB681A407B699A404FF0FF317B6901FA56
:1022000003F3D9437B680B40134318462437BD467C
:102210005DF8047B7047000080B582B000AF786045
:102220007B68013BB3F1807F01D301230FE00A4AB1
:102230007B68013B53600F214FF0FF30FFF78EFFAB
:10224000054B00229A60044B07221A6000231846AF
:102250000837BD4680BD00BF10E000E080B582B009
:1022600000AF78607868FFF729FF00BF0837BD46E8
:1022700080BD80B586B000AF0346B9607A60FB735D
:1022800000237B61FFF73EFF78617A68B96878695F
:10229000FFF78EFF024697F90F3011461846FFF7F9
:1022A0005DFF00BF1837BD4680BD80B582B000AF6E
:1022B0000346FB7197F907301846FFF731FF00BF5F
:1022C0000837BD4680BD80B582B000AF78607868C1
:1022D000FFF7A2FF034618460837BD4680BD000041
:1022E00080B489B000AF7860396000237B6100233F
:1022F0003B610023BB610023FB6159E10122FB69C3
:1023000002FA03F37B613B681B687A6913403B6107
:102310003A697B699A4240F048813B685B6803F008
:102320000303012B05D03B685B6803F00303022B1A
:1023300030D17B689B68BB61FB695B00032202FABA
:1023400003F3DB43BA691340BB613B68DA68FB699E
:102350005B0002FA03F3BA691343BB617B68BA6995
:102360009A607B685B68BB610122FB6902FA03F338
:10237000DB43BA691340BB613B685B681B0903F030
:102380000102FB6902FA03F3BA691343BB617B687C
:10239000BA695A603B685B6803F00303032B17D0EC
:1023A0007B68DB68BB61FB695B00032202FA03F315
:1023B000DB43BA691340BB613B689A68FB695B0009
:1023C00002FA03F3BA691343BB617B68BA69DA6046
:1023D0003B685B6803F00303022B23D1FB69DA0837
:1023E0007B68083253F82230BB61FB6903F00703B6
:1023F0009B000F2202FA03F3DB43BA691340BB616F
:102400003B681A69FB6903F007039B0002FA03F3B8
:10241000BA691343BB61FB69DA087B680832B969A2
:1024200043F822107B681B68BB61FB695B000322D9
:1024300002FA03F3DB43BA691340BB613B685B6894
:1024400003F00302FB695B0002FA03F3BA6913436A
:10245000BB617B68BA691A603B685B6803F4403310
:10246000002B00F0A2800023FB60574B5B6C564AA8
:1024700043F480435364544B5B6C03F48043FB6030
:10248000FB68524AFB699B08023352F82330BB6158
:10249000FB6903F003039B000F2202FA03F3DB4303
:1024A000BA691340BB617B68494A934219D07B6883
:1024B000484A934213D07B68474A93420DD07B68C9
:1024C000464A934207D07B68454A934201D1042390
:1024D00008E0072306E0032304E0022302E00123CF
:1024E00000E00023FA6902F0030292009340BA6907
:1024F0001343BB613549FB699B080233BA6941F854
:102500002320384B9B68BB613B69DB43BA691340AE
:10251000BB613B685B6803F48013002B03D0BA698E
:102520003B691343BB612F4ABB6993602D4BDB684A
:10253000BB613B69DB43BA691340BB613B685B68C5
:1025400003F40013002B03D0BA693B691343BB614A
:10255000244ABB69D360234B5B68BB613B69DB43A7
:10256000BA691340BB613B685B6803F40033002B1E
:1025700003D0BA693B691343BB611A4ABB69536014
:10258000184B1B68BB613B69DB43BA691340BB61F5
:102590003B685B6803F48033002B03D0BA693B6966
:1025A0001343BB610F4ABB691360FB690133FB61D5
:1025B000FB690F2B7FF6A2AE00BF00BF2437BD46DC
:1025C0005DF8047B704700BF0038024000380140CE
:1025D000000002400004024000080240000C0240DB
:1025E00000100240003C014080B485B000AF78602C
:1025F0000B467B807B681A697B881340002B02D0D6
:102600000123FB7301E00023FB73FB7B18461437A7
:10261000BD465DF8047B704780B483B000AF78603E
:102620000B467B8013467B707B78002B03D07A8827
:102630007B689A6103E07B881A047B689A6100BF1B
:102640000C37BD465DF8047B704780B485B000AFA1
:1026500078600B467B807B685B69FB607A88FB68EF
:1026600013401A04FB68D9437B880B401A437B68EC
:102670009A6100BF1437BD465DF8047B70470000C7
:1026800080B582B000AF0346FB80084B5A69FB88D7
:102690001340002B06D0054AFB885361FB8818467F
:1026A000FEF764FF00BF0837BD4680BD003C014017
:1026B00080B584B000AF78607B68002B01D1012326
:1026C0002BE17B6893F83D30DBB2002B06D17B68B1
:1026D000002283F83C207868FFF78CFA7B6824227C
:1026E00083F83D207B681B681A687B681B6822F0B2
:1026F00001021A607B681B681A687B681B6842F4D9
:1027000000421A607B681B681A687B681B6822F4A9
:1027100000421A6001F0DAF8F8607B685B68814A71
:10272000934207D8FB68804A934294BF0123002359
:10273000DBB206E0FB687D4A934294BF012300238D
:10274000DBB2002B01D00123E7E0FB68784AA2FB53
:1027500003239B0CBB607B681B685B6823F03F0115
:102760007B681B68BA680A435A607B681B681B6AEF
:1027700023F03F017B685B686A4A934202D8BB68DA
:10278000013309E0BB684FF4967202FB03F3694A18
:10279000A2FB03239B0901337A6812680B4313627F
:1027A0007B681B68DB6923F44F4222F0FF027B68E1
:1027B0005B685C498B4219D8FB68591E7B685B6873
:1027C0005B00B1FBF3F3591C40F6FC730B40002B8C
:1027D0000AD0FB68591E7B685B685B00B1FBF3F3B2
:1027E0000133C3F30B0351E004234FE07B689B6884
:1027F000002B11D1FB68581E7B6859680B465B00A3
:102800000B44B0FBF3F30133C3F30B03002B0CBFFA
:1028100001230023DBB212E0FB68581E7B68596875
:102820000B469B000B4499000B44B0FBF3F30133C0
:10283000C3F30B03002B0CBF01230023DBB2002BDF
:1028400001D0012322E07B689B68002B0ED1FB683E
:10285000581E7B6859680B465B000B44B0FBF3F3D2
:102860000133C3F30B0343F400430FE0FB68581E2E
:102870007B6859680B469B000B4499000B44B0FBE6
:10288000F3F30133C3F30B0343F44043796809685E
:102890001343CB617B681B681B6823F0C0017B6816
:1028A000DA697B681B6A1A437B681B680A431A60F3
:1028B0007B681B689B6823F4034323F0FF037A685B
:1028C00011697A68D26811437A6812680B43936081
:1028D0007B681B68DB6823F0FF017B685A697B68B3
:1028E0009B691A437B681B680A43DA607B681B6834
:1028F0001A687B681B6842F001021A607B6800223C
:102900001A647B68202283F83D207B6800221A63CA
:102910007B68002283F83E20002318461037BD460E
:1029200080BD00BFA08601007F841E00FF083D001F
:1029300083DE1B43D34D621080B588B002AFF860D0
:102940007A601A460B467B8113463B81FFF786FB74
:102950007861FB6893F83D30DBB2202B40F0E080DB
:102960007B690093192301227049F86800F064F92B
:102970000346002B01D00223D3E0FB6893F83C30E0
:10298000012B01D10223CCE0FB68012283F83C201B
:10299000FB681B681B6803F00103012B07D0FB6871
:1029A0001B681A68FB681B6842F001021A60FB682A
:1029B0001B681A68FB681B6822F400621A60FB68D7
:1029C000212283F83D20FB68102283F83E20FB681B
:1029D00000221A64FB687A685A62FB683A895A8551
:1029E000FB685B8D9AB2FB681A85FB68504ADA6215
:1029F00079897B693A6AF86800F09CF80346002BF5
:102A000001D001238DE000233B61FB681B685B69FB
:102A10003B61FB681B689B693B613B6966E07A69C7
:102A2000396AF86800F022FA0346002B0DD0FB68E3
:102A30001B6C042B07D1FB681B681A68FB681B68BA
:102A400042F400721A6001236BE0FB685B6A1A783B
:102A5000FB681B681A61FB685B6A5A1CFB685A6258
:102A6000FB685B8D9BB2013B9AB2FB685A85FB68A1
:102A70001B8D013B9AB2FB681A85FB681B685B697A
:102A800003F00403042B1BD1FB681B8D002B17D014
:102A9000FB685B6A1A78FB681B681A61FB685B6AF3
:102AA0005A1CFB685A62FB685B8D9BB2013B9AB271
:102AB000FB685A85FB681B8D013B9AB2FB681A853F
:102AC0007A69396AF86800F019FA0346002B0DD0CC
:102AD000FB681B6C042B07D1FB681B681A68FB683A
:102AE0001B6842F400721A6001231AE0FB681B8D18
:102AF000002B94D1FB681B681A68FB681B6842F4C2
:102B000000721A60FB68202283F83D20FB680022D7
:102B100083F83E20FB68002283F83C20002300E07D
:102B2000022318461837BD4680BD00BF02001000C2
:102B30000000FFFF80B588B002AFF8607A603B60AC
:102B40000B467B81FB68DB6A7B617B69082B06D0C7
:102B50007B69012B03D07B6913F5803F08D1FB68AB
:102B60001B681A68FB681B6842F480721A600BE0ED
:102B7000FB681B6B122B07D1FB681B681A68FB688C
:102B80001B6842F480721A603B6800937B680022E5
:102B90004FF00111F86800F04FF80346002B0DD0FC
:102BA000FB681B681B6803F48073B3F5807F03D157
:102BB000FB684FF400721A64032335E0FB681B695D
:102BC000B3F5804F08D17B89DBB21A46FB681B68DE
:102BD00002F0FE021A611BE07B89DB11DBB203F01D
:102BE0000603DBB263F00F03DAB2FB681B681A61FD
:102BF0003B687A680E49F86800F098F80346002BA5
:102C000001D0012310E07B89DAB2FB681B681A61EE
:102C10003B687A680749F86800F088F80346002B9B
:102C200001D0012300E0002318461837BD4680BDBF
:102C3000080001000200010080B584B000AFF86018
:102C4000B9603B601346FB7148E03B68B3F1FF3F5E
:102C500044D0FFF703FA0246BB69D31A3A689A4296
:102C600002D33B68002B39D1BB681B0CDBB2012BB4
:102C70000DD1FB681B685B69DA43BB6813409BB2EC
:102C8000002B0CBF01230023DBB21A460CE0FB68CB
:102C90001B689B69DA43BB6813409BB2002B0CBFD7
:102CA00001230023DBB21A46FB799A4216D1FB6856
:102CB00000221A63FB68202283F83D20FB68002273
:102CC00083F83E20FB681B6C43F02002FB681A640B
:102CD000FB68002283F83C20012323E0BB681B0C27
:102CE000DBB2012B0DD1FB681B685B69DA43BB6863
:102CF00013409BB2002B0CBF01230023DBB21A460A
:102D00000CE0FB681B689B69DA43BB6813409BB20D
:102D1000002B0CBF01230023DBB21A46FB799A4239
:102D200093D0002318461037BD4680BD80B584B0CF
:102D300000AFF860B9607A603B6071E0FB681B68C7
:102D40005B6903F48063B3F5806F23D1FB681B6874
:102D50001A68FB681B6842F400721A60FB681B6803
:102D60006FF480625A61FB6800221A63FB682022BC
:102D700083F83D20FB68002283F83E20FB681B6C33
:102D800043F00402FB681A64FB68002283F83C20CD
:102D9000012367E07B68B3F1FF3F41D0FFF75EF9A5
:102DA00002463B68D31A7A689A4202D37B68002BAA
:102DB00036D1BB681B0CDBB2012B0CD1FB681B6846
:102DC0005B69DA43BB6813409BB2002B14BF01233D
:102DD0000023DBB20BE0FB681B689B69DA43BB682E
:102DE00013409BB2002B14BF01230023DBB2002B46
:102DF00016D0FB6800221A63FB68202283F83D206E
:102E0000FB68002283F83E20FB681B6C43F0200225
:102E1000FB681A64FB68002283F83C20012321E050
:102E2000BB681B0CDBB2012B0CD1FB681B685B6918
:102E3000DA43BB6813409BB2002B14BF012300236D
:102E4000DBB20BE0FB681B689B69DA43BB6813408D
:102E50009BB2002B14BF01230023DBB2002B7FF4B5
:102E60006DAF002318461037BD4680BD80B584B0D5
:102E700000AFF860B9607A6034E0F86800F086F876
:102E80000346002B01D0012334E0BB68B3F1FF3FC0
:102E900028D0FFF7E3F802467B68D31ABA689A4253
:102EA00002D3BB68002B1DD1FB681B685B6903F074
:102EB0008003802B16D0FB6800221A63FB68202257
:102EC00083F83D20FB68002283F83E20FB681B6CE2
:102ED00043F02002FB681A64FB68002283F83C2060
:102EE000012307E0FB681B685B6903F08003802B0C
:102EF000C3D1002318461037BD4680BD80B584B0CD
:102F000000AFF860B9607A6034E0F86800F03EF82D
:102F10000346002B01D0012334E0BB68B3F1FF3F2F
:102F200028D0FFF79BF802467B68D31ABA689A420A
:102F300002D3BB68002B1DD1FB681B685B6903F0E3
:102F40000403042B16D0FB6800221A63FB682022BE
:102F500083F83D20FB68002283F83E20FB681B6C51
:102F600043F02002FB681A64FB68002283F83C20CF
:102F7000012307E0FB681B685B6903F00403042B73
:102F8000C3D1002318461037BD4680BD80B483B03E
:102F900000AF78607B681B685B6903F48063B3F5FE
:102FA000806F1BD17B681B686FF480625A617B68FD
:102FB00000221A637B68202283F83D207B68002270
:102FC00083F83E207B681B6C43F004027B681A6424
:102FD0007B68002283F83C20012300E00023184690
:102FE0000C37BD465DF8047B7047000080B586B0A5
:102FF00000AF78607B68002B01D1012367E27B681A
:103000001B6803F00103002B75D0884B9B6803F00D
:103010000C03042B0CD0854B9B6803F00C03082B8E
:1030200012D1824B5B6803F48003B3F5800F0BD1A0
:103030007E4B1B6803F40033002B5BD07B685B681E
:10304000002B57D1012342E27B685B68B3F5803FD8
:1030500006D1764B1B68754A43F4803313601DE03C
:103060007B685B68B3F5A02F0CD1704B1B686F4A6F
:1030700043F4802313606D4B1B686C4A43F4803328
:1030800013600BE0694B1B68684A23F480331360BC
:10309000664B1B68654A23F4802313607B685B687A
:1030A000002B13D0FEF7DAFF386108E0FEF7D6FFF9
:1030B00002463B69D31A642B01D9032307E25B4B19
:1030C0001B6803F40033002BF0D014E0FEF7C6FFBA
:1030D000386108E0FEF7C2FF02463B69D31A642B51
:1030E00001D90323F3E1514B1B6803F40033002B98
:1030F000F0D100E000BF7B681B6803F00203002BE7
:1031000063D04A4B9B6803F00C03002B0BD0474B5A
:103110009B6803F00C03082B1CD1444B5B6803F441
:103120008003002B16D1414B1B6803F00203002BD8
:1031300005D07B68DB68012B01D00123C7E13B4B45
:103140001B6823F0F8027B681B69DB0037491343D7
:103150000B603AE07B68DB68002B20D0344B012207
:103160001A60FEF77BFF386108E0FEF777FF024642
:103170003B69D31A022B01D90323A8E12B4B1B680F
:1031800003F00203002BF0D0284B1B6823F0F80259
:103190007B681B69DB00254913430B6015E0244B5A
:1031A00000221A60FEF75AFF386108E0FEF756FF6A
:1031B00002463B69D31A022B01D9032387E11B4B3B
:1031C0001B6803F00203002BF0D17B681B6803F03F
:1031D0000803002B36D07B685B69002B16D0154B9B
:1031E00001221A60FEF73AFF386108E0FEF736FF69
:1031F00002463B69D31A022B01D9032367E10B4B2B
:103200005B6F03F00203002BF0D01BE0094B0022A0
:103210001A60FEF723FF38610EE0FEF71FFF02463B
:103220003B69D31A022B07D9032350E1003802402F
:1032300000004742800E4742884B5B6F03F0020359
:10324000002BEAD17B681B6803F00403002B00F01D
:1032500097800023FB75814B1B6C03F08053002B80
:103260000FD10023BB607D4B1B6C7C4A43F0805325
:1032700013647A4B1B6C03F08053BB60BB68012363
:10328000FB75774B1B6803F48073002B18D1744BCC
:103290001B68734A43F480731360FEF7DFFE3861E6
:1032A00008E0FEF7DBFE02463B69D31A022B01D988
:1032B00003230CE16A4B1B6803F48073002BF0D0EE
:1032C0007B689B68012B06D1644B1B6F634A43F0FC
:1032D000010313671CE07B689B68052B0CD15F4BD7
:1032E0001B6F5E4A43F0040313675C4B1B6F5B4A22
:1032F00043F0010313670BE0584B1B6F574A23F051
:1033000001031367554B1B6F544A23F004031367E3
:103310007B689B68002B15D0FEF7A0FE38610AE0A1
:10332000FEF79CFE02463B69D31A41F28832934273
:1033300001D90323CBE0494B1B6F03F00203002BA1
:10334000EED014E0FEF78AFE38610AE0FEF786FE52
:1033500002463B69D31A41F28832934201D90323D2
:10336000B5E03E4B1B6F03F00203002BEED1FB7D5B
:10337000012B05D1394B1B6C384A23F08053136461
:103380007B689B69002B00F0A180344B9B6803F0A5
:103390000C03082B5CD07B689B69022B41D1314B1D
:1033A00000221A60FEF75AFE386108E0FEF756FE6A
:1033B00002463B69D31A022B01D9032387E0274B2E
:1033C0001B6803F00073002BF0D17B68DA697B681F
:1033D0001B6A1A437B685B6A9B011A437B689B6A82
:1033E0005B08013B1B041A437B68DB6A1B061B4915
:1033F00013434B601B4B01221A60FEF72FFE38610E
:1034000008E0FEF72BFE02463B69D31A022B01D9D6
:1034100003235CE0114B1B6803F00073002BF0D01A
:1034200054E0104B00221A60FEF718FE386108E0E5
:10343000FEF714FE02463B69D31A022B01D903237F
:1034400045E0064B1B6803F00073002BF0D13DE014
:103450007B689B69012B07D1012338E000380240CB
:1034600000700040600047421B4B5B68FB607B685C
:103470009B69012B28D0FB6803F480027B68DB6921
:103480009A4221D1FB6803F03F027B681B6A9A4293
:103490001AD1FA6847F6C07313407A68526A9201EB
:1034A000934211D1FB6803F440327B689B6A5B084E
:1034B000013B1B049A4207D1FB6803F070627B68F2
:1034C000DB6A1B069A4201D0012300E00023184664
:1034D0001837BD4680BD00BF0038024080B584B0BB
:1034E00000AF786039607B68002B01D10123CCE00C
:1034F000684B1B6803F007033A689A420CD9654B86
:103500003A68D2B21A70634B1B6803F007033A683B
:103510009A4201D00123B8E07B681B6803F00203E4
:10352000002B20D07B681B6803F00403002B05D020
:10353000594B9B68584A43F4E05393607B681B687F
:1035400003F00803002B05D0534B9B68524A43F409
:1035500060439360504B9B6823F0F0027B689B684C
:103560004D4913438B607B681B6803F00103002BFC
:1035700044D07B685B68012B07D1474B1B6803F481
:103580000033002B19D101237FE07B685B68022B9D
:1035900003D07B685B68032B07D13F4B1B6803F0AC
:1035A0000073002B09D101236FE03B4B1B6803F034
:1035B0000203002B01D1012367E0374B9B6823F006
:1035C00003027B685B68344913438B60FEF746FD5A
:1035D000F8600AE0FEF742FD0246FB68D31A41F2AA
:1035E0008832934201D903234FE02B4B9B6803F0B1
:1035F0000C027B685B689B009A42EBD1254B1B68F1
:1036000003F007033A689A420CD2224B3A68D2B2CE
:103610001A70204B1B6803F007033A689A4201D0E6
:10362000012332E07B681B6803F00403002B08D001
:10363000194B9B6823F4E0527B68DB6816491343FF
:103640008B607B681B6803F00803002B09D0124BCA
:103650009B6823F460427B681B69DB000E491343BF
:103660008B6000F021F802460B4B9B681B0903F0AE
:103670000F030A49CB5C22FA03F3094A1360094B92
:103680001B681846FEF7A6FC002318461037BD46F7
:1036900080BD00BF003C0240003802403C6500088D
:1036A00014000020180000202DE9B04F94B000AFA6
:1036B00000237B640023FB6400233B640023BB6482
:1036C000794B9B6803F00C03082B0DD0082B00F2FC
:1036D000E180002B02D0042B03D0DBE0734BBB64F2
:1036E000DBE0734BBB64D8E06F4B5B6803F03F03D8
:1036F0007B646D4B5B6803F48003002B63D06A4BE3
:103700005B689B090022BB63FA63BB6BC3F30803CE
:103710003B6300237B63D7E90C4522462B464FF0E1
:1037200000004FF00001590141EAD2615001024608
:103730000B462146511A3961294663EB01037B612F
:103740004FF000024FF00003D7E904AB59468B015C
:10375000514643EA916351468A015146B2EB010852
:10376000594663EB01094FF000024FF000034FEAA6
:10377000C90343EA58734FEAC80290469946234664
:1037800018EB0303BB602B4649EB0303FB604FF0D0
:1037900000024FF00003D7E9024529464B022146BB
:1037A00043EAD15321464A02104619467B6C002257
:1037B000BB62FA62D7E90A23FDF7E0F902460B463D
:1037C0001346FB6458E0384B5B689B09002218469F
:1037D0001146C0F308033B6200237B62D7E90889E6
:1037E00042464B464FF000004FF00001590141EABC
:1037F000D261500102460B464146B2EB010A4946EE
:1038000063EB010B4FF000024FF000034FEA8B1304
:1038100043EA9A634FEA8A12B2EB0A0463EB0B05A0
:103820004FF000024FF00003EB0043EA5473E20054
:1038300014461D464346E3183B604B4645EB0303E5
:103840007B604FF000024FF00003D7E900452946A6
:103850008B02214643EA915321468A0210461946BB
:103860007B6C0022BB61FA61D7E90623FDF786F97C
:1038700002460B461346FB640B4B5B681B0C03F0C4
:10388000030301335B003B64FA6C3B6CB2FBF3F364
:10389000BB6402E0054BBB6400BFBB6C18465037ED
:1038A000BD46BDE8B08F00BF003802400024F400E0
:1038B00000127A0080B400AF034B1B681846BD4667
:1038C0005DF8047B704700BF1400002080B500AF96
:1038D000FFF7F0FF0246054B9B689B0A03F00703C6
:1038E0000349CB5C22FA03F3184680BD003802403E
:1038F0004C65000880B500AFFFF7DCFF0246054BC2
:103900009B685B0B03F007030349CB5C22FA03F3CC
:10391000184680BD003802404C65000880B582B072
:1039200000AF78607B68002B01D1012342E07B6807
:1039300093F84130DBB2002B06D17B68002283F87C
:1039400040207868FEF79EF97B68242283F84120A6
:103950007B681B68DA687B681B6822F40052DA60B7
:10396000786800F02BF87B681B681A697B681B6815
:1039700022F490421A617B681B685A697B681B6855
:1039800022F02A025A617B681B68DA687B681B6830
:1039900042F40052DA607B6800225A647B6820227D
:1039A00083F841207B68202283F842207B68002234
:1039B0005A63002318460837BD4680BD2DE9B04F35
:1039C000C0B000AFC7F8F400D7F8F4301B681B692B
:1039D00023F44050D7F8F430D968D7F8F4301A6897
:1039E00040EA01031361D7F8F4309A68D7F8F4304D
:1039F0001B691A43D7F8F4305B691A43D7F8F430DF
:103A0000DB691343C7F8F830D7F8F4301B68DB687C
:103A100023F4164121F00C01D7F8F4301A68D7F8D6
:103A2000F8300B43D360D7F8F4301B685B6923F49C
:103A30004070D7F8F4309969D7F8F4301A6840EA42
:103A400001035361D7F8F4301A688F4B9A4205D0BE
:103A5000D7F8F4301A688D4B9A4204D1FFF74AFF29
:103A6000C7F8FC0003E0FFF731FFC7F8FC00D7F808
:103A7000F430DB69B3F5004F40F00C81D7F8FC302F
:103A80000022C7F8E830C7F8EC20D7E93A452246CB
:103A90002B469118B9655B41FB65D7E91623214692
:103AA00012EB0108294643EB01094FF000024FF0E9
:103AB00000034FEAC90343EA58734FEAC80290462D
:103AC0009946234618EB0303C7F8E0302B4649EB31
:103AD0000303C7F8E430D7F8F4305B680022C7F876
:103AE000D830C7F8DC20D7E936120B46DB183B6527
:103AF000134642EB03037B65D7E91423D7E938016A
:103B0000FDF73CF802460B46614BA3FB02235B0921
:103B10001C01D7F8FC300022C7F8D030C7F8D420F9
:103B2000D7E9348942464B469118B9645B41FB643E
:103B3000D7E91223414612EB010A494643EB010B38
:103B40004FF000024FF000034FEACB0343EA5A73F1
:103B50004FEACA0292469B4643461AEB0303C7F854
:103B6000C8304B464BEB0303C7F8CC30D7F8F430E2
:103B70005B680022C7F8C030C7F8C420D7E930120C
:103B80000B46DB183B64134642EB03037B64D7E927
:103B90001023D7E93201FCF7F1FF02460B4611462C
:103BA0003B4BA3FB01235B09642202FB03F3CB1A0B
:103BB000DB0003F13202364BA3FB02235B095B00FF
:103BC00003F4F8731C44D7F8FC300022C7F8B8306F
:103BD000C7F8BC20D7E92E8942464B469118B963F5
:103BE0005B41FB63D7E90E234146511839634946CF
:103BF0004B417B634FF000024FF00003D7E90CAB61
:103C00005946CB00514643EA51735146CA0010460B
:103C10001946034642469B18C7F8B0304B460A4641
:103C200042EB0303C7F8B430D7F8F4305B680022E6
:103C3000C7F8A830C7F8AC20D7E92A120B46DB1822
:103C4000BB62134642EB0303FB62D7E90A23D7E9C1
:103C50002C01FCF793FF02460B460D4BA3FB02130E
:103C60005B09642101FB03F3D31ADB003233084AFA
:103C7000A2FB03235B0903F00702D7F8F4301B68AB
:103C800022449A6006E100BF001001400014014088
:103C90001F85EB51D7F8FC300022C7F8A030C7F8D9
:103CA000A420D7E9288942464B46911839625B41E6
:103CB0007B62D7E9082341465418494643EB010586
:103CC0004FF000024FF00003EB0043EA5473E200B0
:103CD00014461D464346E318C7F898304B4645EB5B
:103CE0000303C7F89C30D7F8F4305B680022C7F8AC
:103CF0009030C7F894204FF000024FF00003D7E94E
:103D0000244529468B00214643EA917321468A00C7
:103D1000D7E92601FCF732FF02460B46604BA3FBB6
:103D200002235B091C01D7F8FC300022C7F8883059
:103D3000C7F88C20D7E9228942464B469118B961D1
:103D40005B41FB61D7E90623414651183961494679
:103D50004B417B614FF000024FF00003D7E904AB09
:103D60005946CB00514643EA51735146CA001046AA
:103D70001946034642469B18C7F880304B460A4610
:103D800042EB0303C7F88430D7F8F4305B680022B5
:103D9000BB67FA674FF000024FF00003D7E91E89B6
:103DA00049468B00414643EA917341468A00D7E970
:103DB0002001FCF7E3FE02460B461146384BA3FBFD
:103DC00001235B09642202FB03F3CB1A1B0132338C
:103DD000334AA2FB03235B0903F0F0031C44D7F82A
:103DE000FC3000223B677A67D7E91C8942464B4684
:103DF0009118B9605B41FB60D7E902234146511835
:103E0000396049464B417B604FF000024FF00003A0
:103E1000D7E900AB5946CB00514643EA51735146AE
:103E2000CA0010461946034642469B18BB664B46DD
:103E30000A4642EB0303FB66D7F8F4305B680022C6
:103E40003B667A664FF000024FF00003D7E918890D
:103E500049468B00414643EA917341468A00D7E9BF
:103E60001A01FCF78BFE02460B460D4BA3FB021317
:103E70005B09642101FB03F3D31A1B013233084AA7
:103E8000A2FB03235B0903F00F02D7F8F4301B6891
:103E900022449A6000BF07F58077BD46BDE8B08F29
:103EA0001F85EB5130B52DED028BB0EE408AF0EE60
:103EB000608A0C46002283B00546002351EC100BAB
:103EC000FCF70CFE224618B12D2302F8013B013D00
:103ED00000230948009329466723B0EE480AF0EE14
:103EE000680A006800F0F8FA002818BF204603B0FE
:103EF000BDEC028B30BD00BF2C000020002310B5AC
:103F00000446C0E90033C0E904338360818143661D
:103F1000C2818361194608225C3000F0F4F80D4B31
:103F200063620D4BA3620D4BE3620D4B23630D4B9C
:103F300024629C4206D003F16802944202D0D0333E
:103F40009C4205D104F15800BDE8104000F054B97E
:103F500010BD00BF81400008A3400008DB400008FE
:103F6000FF40000868010020024A0349034800F0AE
:103F700069B800BF20000020694700083000002019
:103F800041680C4B994210B5044601D000F0ECFB9F
:103F9000A168094B994202D0204600F0E5FBE16898
:103FA000064B994204D02046BDE8104000F0DCBB2F
:103FB00010BD00BF68010020D001002038020020A1
:103FC00010B50B4B0B4C0C4A1A6020460022042102
:103FD000FFF794FF04F1680001220921FFF78EFF2B
:103FE00004F1D0000222BDE810401221FFF786BF85
:103FF000A002002068010020693F0008014800F08D
:10400000FCB800BFA9020020014800F0F7B800BFCB
:10401000A902002010B50446FFF7F0FF236A1BB188
:10402000BDE81040FFF7F0BF044B2362044B1B6850
:10403000002BF5D1FFF7C4FFF2E700BF813F000876
:10404000A00200202DE9F8430746884614460026C2
:10405000D4E90195B9F1010905D52468002CF7D1FF
:104060003046BDE8F883AB89012B07D9B5F90E308E
:10407000013303D029463846C04706436835E9E78F
:1040800010B50C46B1F90E1000F068F80028ABBF6F
:10409000636DA3891B1823F48053ACBF6365A381B0
:1040A00010BD2DE9F0411F468B89DB0505460C4606
:1040B000164605D5B1F90E100223002200F03CF897
:1040C000A389B4F90E1023F48053A38132463B46F2
:1040D0002846BDE8F04100F053B810B50C46B1F9E0
:1040E0000E1000F029F8431CA38915BF606523F466
:1040F000805343F48053A38118BFA38110BDB1F94D
:104100000E1000F009B802440346934200D17047F4
:1041100003F8011BF9E7000038B5064D00230446FB
:1041200008462B60FDF78DFE431C02D12B6803B1BE
:10413000236038BDA402002038B5074D0446084668
:10414000114600222A601A46FDF7A2FE431C02D146
:104150002B6803B1236038BDA402002038B5074D99
:1041600004460846114600222A601A46FDF730FE32
:10417000431C02D12B6803B1236038BDA402002088
:1041800038B5074D04460846114600222A601A46F3
:10419000FDF73BFE431C02D12B6803B1236038BD01
:1041A000A4020020014B1868704700BF2C000020BB
:1041B00070B50D4D0D4C641BA4100026A64209D10C
:1041C0000B4D0C4C02F088F9641BA4100026A6428B
:1041D00005D170BD55F8043B98470136EEE755F818
:1041E000043B98470136F2E7B0670008B067000863
:1041F000B0670008B4670008704770477047000058
:1042000038B50546002941D051F8043C0C1F002B5D
:10421000B8BFE41800F0E0F81D4A136833B96360D2
:1042200014602846BDE8384000F0DCB8A34208D945
:10423000206821188B4201BF19685B68091821604A
:10424000EDE71A465B680BB1A342FAD91168501822
:10425000A0420BD120680144501883421160E0D184
:1042600018685B68536008441060DAE702D90C23D1
:104270002B60D6E7206821188B4204BF19685B6861
:10428000636004BF091821605460CAE738BD00BFED
:10429000B002002070B50F4E0C463168054611B9CA
:1042A00000F08AFA30602146284600F085FA431C67
:1042B00003D14FF0FF34204670BDC41C24F003042A
:1042C000A042F8D0211A284600F076FA0130F2D147
:1042D000EFE700BFAC0200202DE9F843CD1C25F02C
:1042E000030508350C2D38BF0C25002D064601DBD3
:1042F000A94204D90C2333600020BDE8F883DFF81D
:10430000D48000F069F8D8F800301C4644BB294638
:104310003046FFF7BFFF431C044658D1D8F8004091
:104320002746002F43D1002C4BD023683946304616
:1043300004EB030900F040FA814542D121686D1A6F
:1043400029463046FFF7A6FF01303AD023682B44B8
:104350002360D8F800305A6862BBC8F800700FE0DC
:104360002268521B20D40B2A17D96119A342256059
:1043700018BF5960636808BFC8F8001062514B60ED
:10438000304600F02FF804F10B00231D20F0070049
:10439000C21A1CBF1B1AA350AFE76268A3420CBF2E
:1043A000C8F800205A60EBE723466468AEE73C4655
:1043B0007F68B6E71A465B68A342FBD100235360CF
:1043C000DEE70C233360304600F00CF894E705601C
:1043D000D6E700BFB00200200148FFF70EBF00BFC4
:1043E000A80200200148FFF709BF00BFA802002073
:1043F000F0B587B01E4604AB019303AB00930C46A7
:1044000005AB0221154601320C9F00F075FA059BA1
:1044100042F20F729342014604D1204600F0DCF9CB
:1044200007B0F0BD027804F8012B002DC8BF0127AA
:104430002E2211F8010F08B1002D29DC672E38D08B
:10444000472E38D02E223021002D2ADC5A1E002A79
:10445000B8BFC3F101030592AABF2B230593637074
:10446000059B2670BCBF2D226270632B25DCA11C2E
:10447000059B0A2293FBF2F202F1300008706FF004
:10448000090000FB023330334B7000238B70C7E709
:104490000FB104F8012B087804F8010B013D002747
:1044A000C7E70FB104F8012B04F8011B013D0027F9
:1044B000CAE76526CAE74526C8E7642293FBF2F2FD
:1044C00002F13000A0706FF0630000FB0233E11CCA
:1044D0000593CDE7000000002DE9F04759EC108B63
:1044E00086B005460C4616469A46002200234046F2
:1044F00049460E9FFCF7F2FA10B109F100439946C4
:104500000022002340464946FCF7DEFA38B130234A
:10451000337000237370304606B0BDE8F0874EA3B9
:10452000D3E9002340464946FCF7E2FA48B149EC9A
:10453000108B00975346621E31462846FFF758FFFE
:10454000E9E7204601F026FB424651EC100B4B46B2
:10455000FCF7CEFA0028EAD105AB019304AB009337
:10456000224603AB022149EC108B284600F0C4F927
:10457000039A42F20F739A4201460ED03346084620
:1045800011F8012B039D0AB1002D0ADC3119C91A5B
:104590002C4600224FF0300C0CE0304600F01CF9A5
:1045A000B9E7013D03F8012B0395E8E703F801CBD8
:1045B00001390122002C25462EDC02B103940FB9EB
:1045C000027832B3B34204BF302203F8012B2E220B
:1045D0001A70039A1C464FF0000CD51A4FF0300E9B
:1045E000E54221D4002AC2F10004D4BF25460025AB
:1045F00001352B44BCF1000F04D0002AC8BF0024B1
:1046000022440392421E12F8010F08B1002910DC67
:10461000E7B900221A707EE7002904F1FF34C5DCF7
:10462000002ACCD00395CAE704F801EF4FF0010C43
:10463000D6E703F8010B0139E5E702F8015BA01AA0
:104640000028FADC0029A8BF5B18E2E71A465C18CC
:104650003025F4E7AFF300802D431CEBE2361A3F20
:10466000B1F90C202DE9F041160705460C4654D44B
:104670004B68002B02DC0B6C002B48DDE66A002E39
:1046800045D0002312F480522F68216A2B6030D06D
:10469000626DA389590705D56368D21A636B0BB1A4
:1046A000236CD21A0023E66A216A2846B047431CCD
:1046B000A38906D129681D292BD82A4A0A41D60781
:1046C00027D400226260D9042269226004D5421CEA
:1046D00001D12B6803B96065616B2F60B9B104F13A
:1046E0004403994202D02846FFF78AFD0023636302
:1046F0000DE001232846B0470246501CC9D12B6863
:10470000002BC6D01D2B01D0162B1ED12F600020F0
:1047100022E043F040031BB21BE00F69002FF6D0EC
:1047200093070E6808BF4B690F6018BF0023A6EB04
:1047300007088B60B8F1000FE9DD216AA66A4346DD
:104740003A462846B047002808DCB4F90C3043F05C
:104750004003A3814FF0FF30BDE8F0810744A8EB90
:104760000008E7E7FEFFBFDF38B50B6905460C46DA
:1047700013B90025284638BD18B1036A0BB9FFF7F5
:1047800049FCB4F90C30002BF3D0626ED00704D48E
:10479000990502D4A06DFFF730FD28462146FFF7AA
:1047A0005FFF636EDA070546E4D4A3899B05E1D475
:1047B000A06DFFF723FDDDE738B5064D0023044665
:1047C00008462B60FDF772FB431C02D12B6803B136
:1047D000236038BDA4020020034611F8012B03F822
:1047E000012B002AF9D170472DE9F74F03690C69B5
:1047F000A34207467EDB013C01F11408A30000F14F
:104800001405009305EB8403019358F8243055F800
:10481000242001339A4208EB8409B2FBF3F62ED32D
:104820004FF0000AC446AE46D3465CF8043B98B24B
:1048300006FB00A0020C1B0C06FB0323DEF8002085
:1048400080B292B2121A5A44DEF800004FEA134ABC
:104850009BB2C3EB224303EB104392B242EA034202
:10486000E1454EF8042B4FEA234BDED2009BEB5878
:104870002BB9019B043B9D421A462FD33C6138461D
:1048800001F080F8002825DB2946002058F8042B89
:10489000D1F800C01FFA82FE1FFA8CF3A3EB0E03BF
:1048A0000344120CC2EB234202EB1C429BB243EACC
:1048B0000243C14541F8043B4FEA2240E6D255F895
:1048C000242005EB840322B9043B9D421A460BD3F6
:1048D0003C610136304603B0BDE8F08F1268043BFE
:1048E000002ACBD1013CC6E71268043B002AEFD175
:1048F000013CEAE70020EEE72DE9F04FC76999B0E7
:104900008DED020B55EC104B229E099183460E92C1
:1049100013937FB9102000F0B3FD0246CBF81C00C2
:1049200020B9A74BEF21A74801F060F9C0E9017752
:104930000760C760DBF81C30196859B15A684A60D3
:10494000012393408B60584600F0E2FDDBF81C30F9
:1049500000221A602B1EB9BF23F0004303930023EB
:104960003360039F984BBCBF01223260BB4312D11E
:10497000139A42F20F731360C7F31303234300F03B
:104980004D85239BDFF854A2002B00F04F850AF1E0
:10499000030300F049BD9DED027B002251EC170B93
:1049A00000238DED0C7BFCF78FF8804658B1139AED
:1049B00001231360239B13B1239A844B1360DFF808
:1049C00020A200F033BD9DED0C0B16AA17A9584686
:1049D00001F088F8C7F30A568146002E77D00D9B68
:1049E000CDF85080C3F31303DDE90C0143F07F538E
:1049F00043F44013A6F2FF3619460022744BFBF72E
:104A000043FC69A3D3E90023FBF7F6FD68A3D3E9D0
:104A10000023FBF73BFC044630460D46FBF782FDC6
:104A200065A3D3E90023FBF7E7FD02460B462046CA
:104A30002946FBF72BFC04460D46FCF777F80022CD
:104A40000746002320462946FCF748F840B138467F
:104A5000FBF768FD22462B46FCF736F800B9013F0C
:104A6000162F51D85B4B03EBC703D3E90023DDE9D5
:104A70000C01FCF733F8002848D0013F00231293C3
:104A8000169B9B1B5A1E44BFC3F1010800230892CA
:104A900054BF4FF000080893002F39DB089B0F9795
:104AA0003B44089300230A93099B092B64D8052BE8
:104AB000C4BF043B0993099BA3F10203CCBF0024AC
:104AC0000124032B63D8DFE803F02A373555DDE9ED
:104AD00016631E4406F23243202BC1BFC3F14003CC
:104AE0009F4006F2124324FA03F3D6BFC3F120031A
:104AF00047EA030004FA03F0FBF704FD0122A1F1E9
:104B0000F873013E149277E70123B8E71290B7E7F4
:104B10007B420A930023A8EB07080F93C4E7002306
:104B20000B930E9B002B35DC0123009307931A4651
:104B30000E920BE00123F3E700230B930E9BFB186F
:104B400000930133012B0793B8BF0123DBF81C004E
:104B50000021042202F114059D421FD941605846EC
:104B600000F096FC824600283CD11B4B024640F2E6
:104B7000AF11D8E60123E0E70124002309930B9449
:104B80004FF0FF330093079300221223D0E7012355
:104B90000B93F5E70E9B00930793D7E70131520083
:104BA000D8E700BFAFF3008061436F63A787D23FB0
:104BB000B3C8608B288AC63FFB799F501344D33F0C
:104BC000636500087A6500080000F07F62650008F0
:104BD0000000F83F70660008D26500085D650008B7
:104BE00061650008DBF81C301860079B0E2B00F293
:104BF000A480002C00F0A180002F33DDAD4B07F026
:104C00000F0203EBC20393ED007BF8058DED047BEF
:104C10004FEA271416D5A84BDDE90C01D3E9082388
:104C2000FBF714FECDE9020104F00F040326A24DA8
:104C300054B9DDE90423DDE90201FBF707FECDE904
:104C4000020128E00226F2E7E10708D5DDE90401C8
:104C5000D5E90023FBF7D0FCCDE90401013664104F
:104C60000835E5E700F0D2807C42924B924D04F08B
:104C70000F0203EBC203D3E90023DDE90C01FBF7CC
:104C8000BBFCCDE90201241100230226002C40F0D8
:104C9000B280002BD3D1129BDDE90245002B00F03E
:104CA000B780864B002220462946FBF717FF0028D5
:104CB00000F0AE80079B002B00F0AA80009B002B29
:104CC00037DD7B1E049320467D4B00222946FBF7EF
:104CD00093FCCDE90201009C01363046FBF722FC33
:104CE000DDE90223FBF788FC764B0022FBF7CEFAC6
:104CF0000546A1F15076002C40F08D80DDE90201DF
:104D0000714B0022FBF7C0FA02460B46CDE90223A5
:104D10002A463346FBF700FF002840F08B82DDE98E
:104D200002012A4606F10043FBF7D8FE002840F0B6
:104D30002881DDE90C34CDE90234179B002BC0F249
:104D40005A810E2F00F357815A4B03EBC70393EDA3
:104D5000007B0E9B002B8DED007B03DA079B002B65
:104D600040F30181DDE902455646DDE90023204696
:104D70002946FBF76BFDFBF7D9FE8046FBF7D2FB1C
:104D8000DDE90023FBF738FC02460B4620462946A6
:104D900008F13004FBF778FA06F8014B079DA6EB03
:104DA0000A04A54202460B4640F01781FBF76EFA53
:104DB000DDE9002304460D46FBF7AEFE002840F077
:104DC000F980DDE9002320462946FBF77DFE18B176
:104DD00018F0010F40F0EE804946584600F098FB6D
:104DE00000233370139B01371F60239B002B00F0BF
:104DF0001D831E601AE3E20705D5D5E90023FBF702
:104E0000FBFB01360123641008353FE7022642E729
:104E1000079C049761E7274B0B9903EBC40353E905
:104E200002235444002953D028490020FBF70EFDEB
:104E300033462A46FBF728FACDE910015646DDE94C
:104E40000201FBF773FE0546FBF76CFB02460B46BF
:104E5000DDE90201FBF718FA303502460B46CDE9D1
:104E6000022306F8015BDDE91023FBF737FE00287B
:104E700071D1DDE9022311490020FBF705FADDE9D4
:104E80001023FBF72BFE002840F09580A6423FF44C
:104E900050AFDDE910010A4B0022FBF7ADFB084BD8
:104EA000CDE910010022DDE90201FBF7A5FBCDE908
:104EB0000201C4E770660008486600080000F03F81
:104EC0000000244000001C40000014400000E03FAF
:104ED00031462846FBF790FBCDE910011594564664
:104EE000DDE90201FBF722FE0546FBF71BFB02464C
:104EF0000B46DDE90201FBF7C7F9303506F8015B27
:104F000002460B46A642CDE902234FF0000224D10F
:104F1000AC4BDDE91001FBF7B9F902460B46DDE9C0
:104F20000201FBF7F9FD002845D1DDE91023A54971
:104F30000020FBF7A9F902460B46DDE90201FBF769
:104F4000CDFD00283FF4F5AE159E731E159316F89F
:104F5000013C302BF8D0049F3EE79B4BFBF74CFB0A
:104F6000CDE90201BCE70CD1984B0022DDE900013C
:104F7000FBF742FBDDE90223FBF7C4FD002800F04C
:104F80005781002425460E9BDB4304935646002799
:104F90002146584600F0BCFA002DDCD02FB1AF42BC
:104FA00003D03946584600F0B3FA2946584600F077
:104FB000AFFAD0E7049733461E4613F8012D392A7D
:104FC00007D19A45F8D1049A0132049230228AF826
:104FD00000201A7801321A70BDE77B4B0022FBF7E4
:104FE0000BFB0022002304460D46FBF76DFD002855
:104FF0003FF4BBAEF0E60B9A002A00F0DB80099A82
:10500000012A00F3BF80149A002A00F0B78003F24F
:1050100033430A9C4646089A01211A44584698444C
:10502000089200F029FB05465EB1089B002B08DDC5
:10503000B342089AA8BF3346A8EB0308F61AD31A5E
:1050400008930A9BF3B10B9B002B00F0B7808CB147
:1050500029462246584600F0CFFB4A4601460546FF
:10506000584600F01FFB49460490584600F050FA9D
:10507000049B99460A9B1A1B04D04946584600F0E7
:10508000BBFB81460121584600F0F6FA0F9B04460F
:10509000002B00F0CF811A460146584600F0ACFBC9
:1050A000099B012B044600F39580029B002B40F0E6
:1050B0008780039BC3F31303002B40F08980039B7D
:1050C00023F000431B0D1B052BB1089B01330893F4
:1050D00008F1010801230A930F9B002B00F0B08117
:1050E000236904EB8303186900F07AFAC0F1200009
:1050F000089B184410F01F0077D0C0F12003042B48
:105100006BDD089BC0F11C000344804406440893F7
:10511000B8F1000F05DD49464246584600F0C6FB8F
:105120008146089B002B05DD21461A46584600F0B3
:10513000BDFB0446129B002B59D02146484600F087
:1051400021FC002853DA7B1E0493494600230A22DF
:10515000584600F0FFF90B9B8146002B00F072814E
:10516000002329460A22584600F0F4F9009B002B40
:10517000054667DC099B022B41DC63E0169BC3F10B
:10518000360346E7079B5C1E0A9BA342BFBF0A9BF0
:105190000F9A0A94E31AB4BFD2181C1B079BBCBF1A
:1051A0000F920024002BB5BFA8EB0306079B00233A
:1051B000464630E70A9C0B9D464635E70A9A5CE76F
:1051C000002388E70000E03F000024400000144076
:1051D000029B80E700230A9382E799D0089A1C3348
:1051E0001A4498441E44089292E70346F6E7079B48
:1051F0000497002B20DC0093099B022B1EDD009BF3
:10520000002B7FF4C0AE21460522584600F0A2F9DB
:1052100001460446484600F0B5FB00287FF7B3AED0
:105220005646312306F8013B049B01330493AEE656
:10523000079C04972546F3E7079B00930B9B002BE5
:1052400000F00481002E05DD29463246584600F064
:105250002DFB05460A9B002B5AD06968584600F082
:1052600017F9064628B9844B024640F2EF21FFF7B2
:105270005ABB2A690232920005F10C010C3000F091
:10528000A7FC01223146584600F010FB0AF1010349
:105290000793009B53440B93029B03F001032F469B
:1052A0000A930546079B2146013B48460093FFF7BA
:1052B0009BFA3946029000F13008484600F062FB44
:1052C0002A4608902146584600F078FBC2680646F8
:1052D00002BB0146484600F055FB0246314658469F
:1052E0000E9200F015F9099B0E9A079E43EA0201FF
:1052F0000A9B194310D1B8F1390F29D0089B002B14
:1053000002DD029B03F13108009B83F800803FE639
:105310002846BBE70122E1E7089B002B04DB099943
:105320000B430A990B4320D1002AEDDD49460122A7
:10533000584600F0BBFA2146814600F023FB0028C6
:1053400003DCE1D118F0010FDED0B8F1390FD8D16C
:10535000009A3923137033461E46013B16F8012C80
:10536000392A52D001321A7012E6002A07DDB8F14C
:10537000390FEDD0009A08F10103137008E6079B7E
:10538000079A03F8018C0B9B934228D049460023CF
:105390000A22584600F0DEF8AF4281464FF0000383
:1053A0004FF00A023946584607D100F0D3F80746B5
:1053B0000546079B0133079374E700F0CBF82946B5
:1053C000074600230A22584600F0C4F80546F0E7D5
:1053D000009B002BCCBF1E460126564400274946A1
:1053E0000122584600F062FA2146814600F0CAFACE
:1053F0000028B0DC02D118F0010FACD133461E46B4
:1054000013F8012D302AFAD0C2E59A45A4D1049BA5
:105410000133049331238AF80030B9E5239BDFF888
:105420005CA01BB10AF10803239A1360504619B01F
:10543000BDE8F08F099B012B7FF737AE0F9B0A93D6
:10544000012055E6009B002B7FF7D6AE564621463D
:105450004846FFF7C9F900F1300806F8018B009BB8
:10546000A6EB0A029342B3DD494600230A225846BE
:1054700000F070F88146EAE7D2650008546500083C
:10548000024B01461868FEF727BF00BF2C00002022
:1054900070B5C66904460D4676B91020FFF7F0FFD7
:1054A0000246E06120B9184B18486B2100F09EFBC2
:1054B000C0E901660660C660E669F36883B1E36926
:1054C000DB6853F82500B8B9012101FA05F6721D11
:1054D0009200204600F0A8FB60B1C0E901560EE042
:1054E00021220421204600F09FFBE369F060DB6885
:1054F000002BE4D1002070BD026843F82520002372
:10550000C0E90333F7E700BF63650008E3650008FF
:1055100070B5C66905460C4676B91020FFF7B0FF96
:105520000246E86120B9094B09488F2100F05EFB73
:10553000C0E901660660C6603CB1EB696268DB6881
:1055400053F82210216043F8224070BD63650008C3
:10555000E36500082DE9F0410D6907460C461E463B
:1055600001F1140C0020DCF8003099B202FB01615B
:105570001E0C0B0C02FB063389B2013001EB034118
:1055800085424CF8041B4FEA1346ECDC0EB3A368CB
:10559000AB4219DC616838460131FFF779FF80467C
:1055A00028B902460C4B0D48BA2100F01FFB2269B6
:1055B000023204F10C0192000C3000F009FB21468C
:1055C0003846FFF7A5FF444604EB850301355E61CD
:1055D00025612046BDE8F081D2650008E36500083A
:1055E000B0F5803F034636BF030400201020B3F11E
:1055F000807F3CBF1B020830B3F1805F3CBF1B01C2
:105600000430B3F1804F3CBF9B000230002B05DB20
:1056100013F0804F00F1010008BF2020704703689D
:10562000024613F007000BD0D90721D4980749BFD1
:105630005B089B08012013605CBF13600220704769
:1056400099B209B91B0C1020D9B209B908301B0A4C
:10565000190704BF1B090430990704BF9B080230D7
:10566000D90703D45B0800F1010003D01360704731
:10567000002070472020704710B50C460121FFF72D
:1056800007FF024628B9054B054840F2451100F0D6
:10569000ADFA01234461036110BD00BFD26500086B
:1056A000E36500082DE9F04F14460A6923699A4220
:1056B000A8BF23460F46A4BF0C461F46D4F810A02F
:1056C000D7F81090A36861680AEB0906B34285B069
:1056D000B8BF0131FFF7DCFE30B90246444B454804
:1056E0004FF4B17100F082FA00F1140505EB860861
:1056F0002B460022434521D307F1140104F1140283
:1057000002EB8A0201EB89030293131B153B23F082
:105710000303043304F11507BA4238BF042301938D
:10572000029B03918B420CD8002E03DD58F8043DF8
:10573000002B5BD0066105B0BDE8F08F43F8042B69
:10574000D8E7B1F800A0BAF1000F24D004F1140E8C
:10575000A9464FF0000C5EF8047BD9F800301FFA20
:1057600087FB9BB20AFB0B334FEA174BD9F800704B
:1057700063444FEA174C0AFB0BC707EB13479BB276
:1057800043EA0743724549F8043B4FEA174CE2D815
:10579000019B45F803C0039BB3F802900431B9F1B3
:1057A000000F21D02B6804F1140CAE464FF0000A14
:1057B000BCF800B0BEF8027009FB0B7757449BB2EF
:1057C00043EA07434EF8043B5CF8043B4FEA134AB4
:1057D000BEF8003009FB0A3303EB174362454FEA7A
:1057E000134AE5D8019FEB51043599E7013E9BE749
:1057F000D2650008E36500082DE9F843154612F06C
:10580000030207460E4607D0254C013A002354F800
:105810002220FFF79FFE0646AD103DD0FC697CB903
:105820001020FFF72DFE0246F86128B91D4B1E48D7
:1058300040F2B31100F0DAF9C0E901440460C46039
:10584000D7F81C80D8F808404CB940F2712138468E
:10585000FFF712FF0023C8F80800044603604FF06A
:105860000009EB070AD5314622463846FFF71AFFF2
:10587000314680463846FFF74BFE46466D100BD04A
:10588000206838B9224621463846FFF70BFF2060D2
:10589000C0F800900446E4E73046BDE8F88300BF56
:1058A0003C66000863650008E36500082DE9F047E1
:1058B0000C464968236903EB6218A36807469146C2
:1058C0004FEA621A08F10106B3420BDB3846FFF7D4
:1058D000DFFD054648B90246284B29484FF4EF71D1
:1058E00000F084F901315B00EEE7002300F11401C0
:1058F00000F110021846534533DB20692AEAEA7AA0
:1059000004F1140319F01F0901EB8A0103EB800C69
:105910002BD0C9F1200E8A460022186800FA09F03F
:1059200010434AF8040B53F8042B9C4522FA0EF25C
:10593000F3D8ACEB0403153B23F00303043304F169
:105940001500844538BF0423CA500AB108F1020685
:10595000013E38462E612146FFF7DAFD2846BDE8B4
:10596000F08742F8040F0133C5E7043953F8042BDC
:1059700041F8042F9C45F9D8EAE700BFD26500083A
:10598000E36500080A6903460069801A30B50ED144
:105990001433143103EB820401EB820154F8045DEB
:1059A00051F8042D954203D005D24FF0FF3030BDA1
:1059B000A342F3D3FBE70120F9E700002DE9F74FFD
:1059C00089460646114648461446FFF7DBFF051E8A
:1059D00012D129463046FFF75BFD024628B93F4BFE
:1059E00040F237213E4800F001F90123C0E90435B7
:1059F000104603B0BDE8F08FBCBF4B46A146304611
:105A0000D9F80410BABF1C4601250025FFF740FD58
:105A1000024618B9314B40F24521E3E7D9F810703E
:105A20002669C56009F1100309F1140504F1140E8B
:105A300000F1140B05EB87080EEB86060193D9469F
:105A40004FF0000C019B5EF8040B53F804AF019378
:105A50001FFA8AF3194683B2CB1A000C6344C0EBD9
:105A60001A4000EB23409BB243EA0043764549F8D5
:105A7000043B4FEA204CE5D8331B153B23F00303CE
:105A800015340433A64238BF04231D445B441E462C
:105A90002C4644450ED308F10301491B21F00301B4
:105AA000033DA84538BF00210B4453F8041D91B1B4
:105AB00017619DE754F8041BE646080C1CFA81FCAC
:105AC000714400EB2C4089B241EA004146F8041BC6
:105AD0004FEA204CDDE7013FE7E700BFD265000851
